{
  "transactions": [
    {
      "hash": "0x46dfad3a82d7c1eea3641b7476e96f751c46d31fb7c79b602b22fab368b0db98",
      "transactionType": "CALL",
      "contractName": null,
      "contractAddress": "0xceadd34edba6f9fa1c9bb683d11610d1d6834fe6",
      "function": "mint(uint256,address[])",
      "arguments": [
        "1",
        "[0x0A16b442bD4892A8f5df0570cF303eD5bBd66C65]"
      ],
      "transaction": {
        "from": "0x82eb6481ab69df6f8b43b9883ca611b8ea630095",
        "to": "0xceadd34edba6f9fa1c9bb683d11610d1d6834fe6",
        "gas": "0x16d52",
        "value": "0x0",
        "input": "0x4e6cca8f0000000000000000000000000000000000000000000000000000000000000001000000000000000000000000000000000000000000000000000000000000004000000000000000000000000000000000000000000000000000000000000000010000000000000000000000000a16b442bd4892a8f5df0570cf303ed5bbd66c65",
        "nonce": "0x14",
        "chainId": "0x2105"
      },
      "additionalContracts": [],
      "isFixedGasLimit": false
    }
  ],
  "receipts": [
    {
      "status": "0x1",
      "cumulativeGasUsed": "0x5cdede",
      "logs": [
        {
          "address": "0xceadd34edba6f9fa1c9bb683d11610d1d6834fe6",
          "topics": [
            "0xc3d58168c5ae7397731d063d5bbf3d657854427343f4c083240f7aacaa2d0f62",
            "0x00000000000000000000000082eb6481ab69df6f8b43b9883ca611b8ea630095",
            "0x0000000000000000000000000000000000000000000000000000000000000000",
            "0x0000000000000000000000000a16b442bd4892a8f5df0570cf303ed5bbd66c65"
          ],
          "data": "0x00000000000000000000000000000000000000000000000000000000000000010000000000000000000000000000000000000000000000000000000000000001",
          "blockHash": "0xd46309e13e3d6c078455f798ee47bebd869c68ad09bf80f5348eb6cff72ccbdd",
          "blockNumber": "0xdf8f22",
          "transactionHash": "0x46dfad3a82d7c1eea3641b7476e96f751c46d31fb7c79b602b22fab368b0db98",
          "transactionIndex": "0x1b",
          "logIndex": "0x86",
          "removed": false
        }
      ],
      "logsBloom": "0x00000004000000000000000400000000000000000000000000000000000000000000000000000000000000000000000000000000000000000000000000002000000000000000000000000000020000000000000000000000000100000000000000000000020000000000000000000800000000000000000000000000000000000000000000000000000000000040000000000000000000000000000000000000000000000000000000000000000000000000000000000000000000000000000000000000000000000002000000000000000000000008000000000000000020000000000000000000000000000000000410000000000000000000080001000000",
      "type": "0x2",
      "transactionHash": "0x46dfad3a82d7c1eea3641b7476e96f751c46d31fb7c79b602b22fab368b0db98",
      "transactionIndex": "0x1b",
      "blockHash": "0xd46309e13e3d6c078455f798ee47bebd869c68ad09bf80f5348eb6cff72ccbdd",
      "blockNumber": "0xdf8f22",
      "gasUsed": "0xf9cb",
      "effectiveGasPrice": "0x13b982a",
      "from": "0x82eb6481ab69df6f8b43b9883ca611b8ea630095",
      "to": "0xceadd34edba6f9fa1c9bb683d11610d1d6834fe6",
      "contractAddress": null,
      "l1Fee": "0x26acc28d7",
      "l1GasPrice": "0xd491a506",
      "l1GasUsed": "0xa54"
    }
  ],
  "libraries": [],
  "pending": [],
  "returns": {},
  "timestamp": 1716091693,
  "chain": 8453,
  "commit": "4585d71"
}