{
  "transactions": [
    {
      "hash": "0x1ae47807a88f4fa263ef00b42e84cb869b3b03801b9da6e177ce52e6ae20236d",
      "transactionType": "CALL",
      "contractName": null,
      "contractAddress": "0xceadd34edba6f9fa1c9bb683d11610d1d6834fe6",
      "function": "mint(uint256,address[])",
      "arguments": [
        "1",
        "[0x07aFC33e8DFaD2fBf92D0dB62a93fB0A090E7038]"
      ],
      "transaction": {
        "from": "0x82eb6481ab69df6f8b43b9883ca611b8ea630095",
        "to": "0xceadd34edba6f9fa1c9bb683d11610d1d6834fe6",
        "gas": "0x16d52",
        "value": "0x0",
        "input": "0x4e6cca8f00000000000000000000000000000000000000000000000000000000000000010000000000000000000000000000000000000000000000000000000000000040000000000000000000000000000000000000000000000000000000000000000100000000000000000000000007afc33e8dfad2fbf92d0db62a93fb0a090e7038",
        "nonce": "0x13",
        "chainId": "0x2105"
      },
      "additionalContracts": [],
      "isFixedGasLimit": false
    }
  ],
  "receipts": [
    {
      "status": "0x1",
      "cumulativeGasUsed": "0xdf3ed1",
      "logs": [
        {
          "address": "0xceadd34edba6f9fa1c9bb683d11610d1d6834fe6",
          "topics": [
            "0xc3d58168c5ae7397731d063d5bbf3d657854427343f4c083240f7aacaa2d0f62",
            "0x00000000000000000000000082eb6481ab69df6f8b43b9883ca611b8ea630095",
            "0x0000000000000000000000000000000000000000000000000000000000000000",
            "0x00000000000000000000000007afc33e8dfad2fbf92d0db62a93fb0a090e7038"
          ],
          "data": "0x00000000000000000000000000000000000000000000000000000000000000010000000000000000000000000000000000000000000000000000000000000001",
          "blockHash": "0x4f4d3aa9a4d9ed42746d0d0cc17c59901174c3eb68a242c424b044c4d3bd0dd3",
          "blockNumber": "0xdf7d92",
          "transactionHash": "0x1ae47807a88f4fa263ef00b42e84cb869b3b03801b9da6e177ce52e6ae20236d",
          "transactionIndex": "0x1e",
          "logIndex": "0x106",
          "removed": false
        }
      ],
      "logsBloom": "0x00000000000000000000000000000000000000000002000000000000000000000000000000000000000000000000000000000000000000000000000000002000000000000000000000000000020000000000000000000000000100000000000000000000020000000000000000000800000000000000000000000000000000000000000000000000000000000040000000000000000000000000000000000000000000000000000000000100000000000000000000000000000000000000000000000000000000000000000000000000000000000008000000000000000020000000000200000000000000000000000410000000000000000000080001000000",
      "type": "0x2",
      "transactionHash": "0x1ae47807a88f4fa263ef00b42e84cb869b3b03801b9da6e177ce52e6ae20236d",
      "transactionIndex": "0x1e",
      "blockHash": "0x4f4d3aa9a4d9ed42746d0d0cc17c59901174c3eb68a242c424b044c4d3bd0dd3",
      "blockNumber": "0xdf7d92",
      "gasUsed": "0xf9cb",
      "effectiveGasPrice": "0x122c881",
      "from": "0x82eb6481ab69df6f8b43b9883ca611b8ea630095",
      "to": "0xceadd34edba6f9fa1c9bb683d11610d1d6834fe6",
      "contractAddress": null,
      "l1Fee": "0x26d1d7681",
      "l1GasPrice": "0xd55d74b1",
      "l1GasUsed": "0xa54"
    }
  ],
  "libraries": [],
  "pending": [],
  "returns": {},
  "timestamp": 1716082702,
  "chain": 8453,
  "commit": "4585d71"
}