{
  "transactions": [
    {
      "hash": "0xb577010460c81aab44c674814f22f671ffafbd3459607ce3892797ec63f58c66",
      "transactionType": "CALL",
      "contractName": null,
      "contractAddress": "0xceadd34edba6f9fa1c9bb683d11610d1d6834fe6",
      "function": "mint(uint256,address[])",
      "arguments": [
        "1",
        "[0x36fF2468daA79f52d88d7359A631Cf7AB4BDc8Bb, 0xf8E44356061B85E38383BFea40C7e3945a5b2991]"
      ],
      "transaction": {
        "from": "0x82eb6481ab69df6f8b43b9883ca611b8ea630095",
        "to": "0xceadd34edba6f9fa1c9bb683d11610d1d6834fe6",
        "gas": "0x1fba1",
        "value": "0x0",
        "input": "0x4e6cca8f00000000000000000000000000000000000000000000000000000000000000010000000000000000000000000000000000000000000000000000000000000040000000000000000000000000000000000000000000000000000000000000000200000000000000000000000036ff2468daa79f52d88d7359a631cf7ab4bdc8bb000000000000000000000000f8e44356061b85e38383bfea40c7e3945a5b2991",
        "nonce": "0xb",
        "chainId": "0x2105"
      },
      "additionalContracts": [],
      "isFixedGasLimit": false
    }
  ],
  "receipts": [
    {
      "status": "0x1",
      "cumulativeGasUsed": "0x5e21f3",
      "logs": [
        {
          "address": "0xceadd34edba6f9fa1c9bb683d11610d1d6834fe6",
          "topics": [
            "0xc3d58168c5ae7397731d063d5bbf3d657854427343f4c083240f7aacaa2d0f62",
            "0x00000000000000000000000082eb6481ab69df6f8b43b9883ca611b8ea630095",
            "0x0000000000000000000000000000000000000000000000000000000000000000",
            "0x00000000000000000000000036ff2468daa79f52d88d7359a631cf7ab4bdc8bb"
          ],
          "data": "0x00000000000000000000000000000000000000000000000000000000000000010000000000000000000000000000000000000000000000000000000000000001",
          "blockHash": "0xb6b15329abfbcb4b39e5d41bb6df0c4aafb3257f08143227e0ab5a0013381b50",
          "blockNumber": "0xdf3822",
          "transactionHash": "0xb577010460c81aab44c674814f22f671ffafbd3459607ce3892797ec63f58c66",
          "transactionIndex": "0x1f",
          "logIndex": "0x9d",
          "removed": false
        },
        {
          "address": "0xceadd34edba6f9fa1c9bb683d11610d1d6834fe6",
          "topics": [
            "0xc3d58168c5ae7397731d063d5bbf3d657854427343f4c083240f7aacaa2d0f62",
            "0x00000000000000000000000082eb6481ab69df6f8b43b9883ca611b8ea630095",
            "0x0000000000000000000000000000000000000000000000000000000000000000",
            "0x000000000000000000000000f8e44356061b85e38383bfea40c7e3945a5b2991"
          ],
          "data": "0x00000000000000000000000000000000000000000000000000000000000000010000000000000000000000000000000000000000000000000000000000000001",
          "blockHash": "0xb6b15329abfbcb4b39e5d41bb6df0c4aafb3257f08143227e0ab5a0013381b50",
          "blockNumber": "0xdf3822",
          "transactionHash": "0xb577010460c81aab44c674814f22f671ffafbd3459607ce3892797ec63f58c66",
          "transactionIndex": "0x1f",
          "logIndex": "0x9e",
          "removed": false
        }
      ],
      "logsBloom": "0x00000000000000000000000000000000000000000000000000000000000000000000000000000000000000000000000000000000000000000000000000002000000000000000000000000000020000000000000000000000000100000000000000000000020000000000000000000800000000000000000010000000000000000000000000000000000000000040000000000000000000000000000000000000000000000000000000000000000000240000000400800000000000000000000000000000000000000000000000000000000000008008000000000000000020000000000000000000000000000000000410000000000000000000080001000000",
      "type": "0x2",
      "transactionHash": "0xb577010460c81aab44c674814f22f671ffafbd3459607ce3892797ec63f58c66",
      "transactionIndex": "0x1f",
      "blockHash": "0xb6b15329abfbcb4b39e5d41bb6df0c4aafb3257f08143227e0ab5a0013381b50",
      "blockNumber": "0xdf3822",
      "gasUsed": "0x16f84",
      "effectiveGasPrice": "0x2586d30",
      "from": "0x82eb6481ab69df6f8b43b9883ca611b8ea630095",
      "to": "0xceadd34edba6f9fa1c9bb683d11610d1d6834fe6",
      "contractAddress": null,
      "l1Fee": "0x2fe7f4aae",
      "l1GasPrice": "0xe5ea409c",
      "l1GasUsed": "0xbd4"
    }
  ],
  "libraries": [],
  "pending": [],
  "returns": {},
  "timestamp": 1716047150,
  "chain": 8453,
  "commit": "4585d71"
}