{
  "transactions": [
    {
      "hash": "0xfdf7e725d5ccb3214e705ab726bcd3cd2caf0965d753f0835078f80fc1441b6e",
      "transactionType": "CALL",
      "contractName": null,
      "contractAddress": "0xceadd34edba6f9fa1c9bb683d11610d1d6834fe6",
      "function": "mint(uint256,address[])",
      "arguments": [
        "1",
        "[0x82eb6481aB69dF6f8B43b9883cA611B8EA630095]"
      ],
      "transaction": {
        "from": "0x82eb6481ab69df6f8b43b9883ca611b8ea630095",
        "to": "0xceadd34edba6f9fa1c9bb683d11610d1d6834fe6",
        "gas": "0x15ef8",
        "value": "0x0",
        "input": "0x4e6cca8f00000000000000000000000000000000000000000000000000000000000000010000000000000000000000000000000000000000000000000000000000000040000000000000000000000000000000000000000000000000000000000000000100000000000000000000000082eb6481ab69df6f8b43b9883ca611b8ea630095",
        "nonce": "0x9",
        "chainId": "0x2105"
      },
      "additionalContracts": [],
      "isFixedGasLimit": false
    }
  ],
  "receipts": [
    {
      "status": "0x1",
      "cumulativeGasUsed": "0x56ced1",
      "logs": [
        {
          "address": "0xceadd34edba6f9fa1c9bb683d11610d1d6834fe6",
          "topics": [
            "0xc3d58168c5ae7397731d063d5bbf3d657854427343f4c083240f7aacaa2d0f62",
            "0x00000000000000000000000082eb6481ab69df6f8b43b9883ca611b8ea630095",
            "0x0000000000000000000000000000000000000000000000000000000000000000",
            "0x00000000000000000000000082eb6481ab69df6f8b43b9883ca611b8ea630095"
          ],
          "data": "0x00000000000000000000000000000000000000000000000000000000000000010000000000000000000000000000000000000000000000000000000000000001",
          "blockHash": "0x1b7fe6064bb580770f3d90ba271d65369c388f772500f51c02d0cec625d3c875",
          "blockNumber": "0xdf0013",
          "transactionHash": "0xfdf7e725d5ccb3214e705ab726bcd3cd2caf0965d753f0835078f80fc1441b6e",
          "transactionIndex": "0x14",
          "logIndex": "0x50",
          "removed": false
        }
      ],
      "logsBloom": "0x00000000000000000000000000000000000000000000000000000000000000000000000000000000000000000000000000000000000000000000000000002000000000000000000000000000020000000000000000000000000100000000000000000000020000000000000000000800000000000000000000000000000000000000000000000000000000000040000000000000000000000000000000000000000000000000000000000000000000000000000000000000000000000000000000000000000000000000000000000000000000000008000000000000000020000000000000000000000000000000000410000000000000000000080001000000",
      "type": "0x2",
      "transactionHash": "0xfdf7e725d5ccb3214e705ab726bcd3cd2caf0965d753f0835078f80fc1441b6e",
      "transactionIndex": "0x14",
      "blockHash": "0x1b7fe6064bb580770f3d90ba271d65369c388f772500f51c02d0cec625d3c875",
      "blockNumber": "0xdf0013",
      "gasUsed": "0xeffb",
      "effectiveGasPrice": "0x2942344",
      "from": "0x82eb6481ab69df6f8b43b9883ca611b8ea630095",
      "to": "0xceadd34edba6f9fa1c9bb683d11610d1d6834fe6",
      "contractAddress": null,
      "l1Fee": "0x25c3419da",
      "l1GasPrice": "0xd0807d50",
      "l1GasUsed": "0xa48"
    }
  ],
  "libraries": [],
  "pending": [],
  "returns": {},
  "timestamp": 1716018446,
  "chain": 8453,
  "commit": "6b508bc"
}