{
  "transactions": [
    {
      "hash": "0x4939031449cefbb23b0d3936edee8bc3120319b2f4e371eee8b318547b61becb",
      "transactionType": "CALL",
      "contractName": null,
      "contractAddress": "0xceadd34edba6f9fa1c9bb683d11610d1d6834fe6",
      "function": "mint(uint256,address[])",
      "arguments": [
        "1",
        "[0xA56B4F0C7622BD076C2bA48B17d1E8D3FBf5303E, 0x98eA7c4239c03b22D984eDe0BC39797B0929c1FB]"
      ],
      "transaction": {
        "from": "0x82eb6481ab69df6f8b43b9883ca611b8ea630095",
        "to": "0xceadd34edba6f9fa1c9bb683d11610d1d6834fe6",
        "gas": "0x1fba1",
        "value": "0x0",
        "input": "0x4e6cca8f000000000000000000000000000000000000000000000000000000000000000100000000000000000000000000000000000000000000000000000000000000400000000000000000000000000000000000000000000000000000000000000002000000000000000000000000a56b4f0c7622bd076c2ba48b17d1e8d3fbf5303e00000000000000000000000098ea7c4239c03b22d984ede0bc39797b0929c1fb",
        "nonce": "0x241",
        "chainId": "0x2105"
      },
      "additionalContracts": [],
      "isFixedGasLimit": false
    }
  ],
  "receipts": [
    {
      "status": "0x1",
      "cumulativeGasUsed": "0x4df221",
      "logs": [
        {
          "address": "0xceadd34edba6f9fa1c9bb683d11610d1d6834fe6",
          "topics": [
            "0xc3d58168c5ae7397731d063d5bbf3d657854427343f4c083240f7aacaa2d0f62",
            "0x00000000000000000000000082eb6481ab69df6f8b43b9883ca611b8ea630095",
            "0x0000000000000000000000000000000000000000000000000000000000000000",
            "0x000000000000000000000000a56b4f0c7622bd076c2ba48b17d1e8d3fbf5303e"
          ],
          "data": "0x00000000000000000000000000000000000000000000000000000000000000010000000000000000000000000000000000000000000000000000000000000001",
          "blockHash": "0xecffb35d7e278bde2c7b1b2a8cb72d5ca74940fd562294288605245c7f5b5a57",
          "blockNumber": "0xe04d70",
          "transactionHash": "0x4939031449cefbb23b0d3936edee8bc3120319b2f4e371eee8b318547b61becb",
          "transactionIndex": "0x1a",
          "logIndex": "0x5e",
          "removed": false
        },
        {
          "address": "0xceadd34edba6f9fa1c9bb683d11610d1d6834fe6",
          "topics": [
            "0xc3d58168c5ae7397731d063d5bbf3d657854427343f4c083240f7aacaa2d0f62",
            "0x00000000000000000000000082eb6481ab69df6f8b43b9883ca611b8ea630095",
            "0x0000000000000000000000000000000000000000000000000000000000000000",
            "0x00000000000000000000000098ea7c4239c03b22d984ede0bc39797b0929c1fb"
          ],
          "data": "0x00000000000000000000000000000000000000000000000000000000000000010000000000000000000000000000000000000000000000000000000000000001",
          "blockHash": "0xecffb35d7e278bde2c7b1b2a8cb72d5ca74940fd562294288605245c7f5b5a57",
          "blockNumber": "0xe04d70",
          "transactionHash": "0x4939031449cefbb23b0d3936edee8bc3120319b2f4e371eee8b318547b61becb",
          "transactionIndex": "0x1a",
          "logIndex": "0x5f",
          "removed": false
        }
      ],
      "logsBloom": "0x00000000000000000000000000000000000000000000000000000000000000000000000000000000000000000000000000020000000000000000000000002000000000000000000000000000020000000000000000000000000100000000000000000000020000000000000000000800000000000000000000000000000000000000000000080001000000000040000000000000000000000000000000000000200000000000000000000000000000000000000002000000000000000000000000000000000000000200000000000000000000000008000000000000000020000000000000000000000000000000000410000000000000000000080001000000",
      "type": "0x2",
      "transactionHash": "0x4939031449cefbb23b0d3936edee8bc3120319b2f4e371eee8b318547b61becb",
      "transactionIndex": "0x1a",
      "blockHash": "0xecffb35d7e278bde2c7b1b2a8cb72d5ca74940fd562294288605245c7f5b5a57",
      "blockNumber": "0xe04d70",
      "gasUsed": "0x16f84",
      "effectiveGasPrice": "0x18b422b",
      "from": "0x82eb6481ab69df6f8b43b9883ca611b8ea630095",
      "to": "0xceadd34edba6f9fa1c9bb683d11610d1d6834fe6",
      "contractAddress": null,
      "l1Fee": "0x23041cbd2",
      "l1GasPrice": "0xa64b7518",
      "l1GasUsed": "0xbf4"
    }
  ],
  "libraries": [],
  "pending": [],
  "returns": {},
  "timestamp": 1716189129,
  "chain": 8453,
  "commit": "4585d71"
}