{
  "transactions": [
    {
      "hash": "0xa0d3b9d4ef15fc06975ef9012bafa91f24066c06957ee23c3bb505b6d1e1c293",
      "transactionType": "CALL",
      "contractName": null,
      "contractAddress": "0xe157839cf20825b946ef7b6b708bd890065ad0ba",
      "function": "mint(uint256,address[])",
      "arguments": [
        "1",
        "[0x1eC1C16957745cdC224FD852AAFdD133f3897078]"
      ],
      "transaction": {
        "from": "0x3ce1f9bfcf48ea8ee299e48ad8d62517584af24e",
        "to": "0xe157839cf20825b946ef7b6b708bd890065ad0ba",
        "gas": "0x16d52",
        "value": "0x0",
        "input": "0x4e6cca8f0000000000000000000000000000000000000000000000000000000000000001000000000000000000000000000000000000000000000000000000000000004000000000000000000000000000000000000000000000000000000000000000010000000000000000000000001ec1c16957745cdc224fd852aafdd133f3897078",
        "nonce": "0x51",
        "chainId": "0xaa36a7"
      },
      "additionalContracts": [],
      "isFixedGasLimit": false
    }
  ],
  "receipts": [
    {
      "status": "0x1",
      "cumulativeGasUsed": "0x725975",
      "logs": [
        {
          "address": "0xe157839cf20825b946ef7b6b708bd890065ad0ba",
          "topics": [
            "0xc3d58168c5ae7397731d063d5bbf3d657854427343f4c083240f7aacaa2d0f62",
            "0x0000000000000000000000003ce1f9bfcf48ea8ee299e48ad8d62517584af24e",
            "0x0000000000000000000000000000000000000000000000000000000000000000",
            "0x0000000000000000000000001ec1c16957745cdc224fd852aafdd133f3897078"
          ],
          "data": "0x00000000000000000000000000000000000000000000000000000000000000010000000000000000000000000000000000000000000000000000000000000001",
          "blockHash": "0x79d209561b3f3f3871055853fa6af2ee644d52af90f8b39ad45664f10f23f628",
          "blockNumber": "0x5a599a",
          "transactionHash": "0xa0d3b9d4ef15fc06975ef9012bafa91f24066c06957ee23c3bb505b6d1e1c293",
          "transactionIndex": "0x54",
          "logIndex": "0x9c",
          "removed": false
        }
      ],
      "logsBloom": "0x00000000000000000000000000000000000000000000000000010000000000000000000000001000000000000000000000000000000000000000000000002000000000000000000000000000000000000000000000000000000000080000000000000040020000080000000000000800000004000000000000000000000000000000000000000000000000000000000000000000000000000000000000000000000000000000000000000000000000000000000000000000000000000000000000000000000000000000000000000000000000000008000000000000000020000000000002000000000000000400000000000200000000000000080000000000",
      "type": "0x2",
      "transactionHash": "0xa0d3b9d4ef15fc06975ef9012bafa91f24066c06957ee23c3bb505b6d1e1c293",
      "transactionIndex": "0x54",
      "blockHash": "0x79d209561b3f3f3871055853fa6af2ee644d52af90f8b39ad45664f10f23f628",
      "blockNumber": "0x5a599a",
      "gasUsed": "0xf9cb",
      "effectiveGasPrice": "0x1d74fe9026",
      "from": "0x3ce1f9bfcf48ea8ee299e48ad8d62517584af24e",
      "to": "0xe157839cf20825b946ef7b6b708bd890065ad0ba",
      "contractAddress": null
    }
  ],
  "libraries": [],
  "pending": [],
  "returns": {},
  "timestamp": 1715948897,
  "chain": 11155111,
  "commit": "6b508bc"
}