{
  "transactions": [
    {
      "hash": "0x9485d080bae5f1519817ab0098240a623120665fc6b2b50522d43befa84ba741",
      "transactionType": "CALL",
      "contractName": null,
      "contractAddress": "0xe157839cf20825b946ef7b6b708bd890065ad0ba",
      "function": "mint(uint256,address[])",
      "arguments": [
        "1",
        "[0x75bfCe92dAC9A0C7d76fF5aDB405F7cA269Dc30d]"
      ],
      "transaction": {
        "from": "0x3ce1f9bfcf48ea8ee299e48ad8d62517584af24e",
        "to": "0xe157839cf20825b946ef7b6b708bd890065ad0ba",
        "gas": "0x16d52",
        "value": "0x0",
        "input": "0x4e6cca8f00000000000000000000000000000000000000000000000000000000000000010000000000000000000000000000000000000000000000000000000000000040000000000000000000000000000000000000000000000000000000000000000100000000000000000000000075bfce92dac9a0c7d76ff5adb405f7ca269dc30d",
        "nonce": "0x56",
        "chainId": "0xaa36a7"
      },
      "additionalContracts": [],
      "isFixedGasLimit": false
    }
  ],
  "receipts": [
    {
      "status": "0x1",
      "cumulativeGasUsed": "0x12b7437",
      "logs": [
        {
          "address": "0xe157839cf20825b946ef7b6b708bd890065ad0ba",
          "topics": [
            "0xc3d58168c5ae7397731d063d5bbf3d657854427343f4c083240f7aacaa2d0f62",
            "0x0000000000000000000000003ce1f9bfcf48ea8ee299e48ad8d62517584af24e",
            "0x0000000000000000000000000000000000000000000000000000000000000000",
            "0x00000000000000000000000075bfce92dac9a0c7d76ff5adb405f7ca269dc30d"
          ],
          "data": "0x00000000000000000000000000000000000000000000000000000000000000010000000000000000000000000000000000000000000000000000000000000001",
          "blockHash": "0x030edf615ca4eac67463f49d1614b3632e2c1efdbfefdfdfa99ee0299d9b40da",
          "blockNumber": "0x5a6b94",
          "transactionHash": "0x9485d080bae5f1519817ab0098240a623120665fc6b2b50522d43befa84ba741",
          "transactionIndex": "0x61",
          "logIndex": "0xe6",
          "removed": false
        }
      ],
      "logsBloom": "0x00000000000000000000000000000000000000000000000000010000000000000000000000001000000000000000000000000000000000000000000001002000000000000000000000000000000800000000000000000000000000000000000000000040030000080000000000000800000004000000000000000000000000000000000000000000000000000000000000000000000000000000000000000000000000000000000000000000000000000000000000000000000000000000000000000000000000000000000000000000000000000008000000000000000020000000000000000000000000000000000000000200000000000000080000000000",
      "type": "0x2",
      "transactionHash": "0x9485d080bae5f1519817ab0098240a623120665fc6b2b50522d43befa84ba741",
      "transactionIndex": "0x61",
      "blockHash": "0x030edf615ca4eac67463f49d1614b3632e2c1efdbfefdfdfa99ee0299d9b40da",
      "blockNumber": "0x5a6b94",
      "gasUsed": "0xf9cb",
      "effectiveGasPrice": "0xb71f7c583",
      "from": "0x3ce1f9bfcf48ea8ee299e48ad8d62517584af24e",
      "to": "0xe157839cf20825b946ef7b6b708bd890065ad0ba",
      "contractAddress": null
    }
  ],
  "libraries": [],
  "pending": [],
  "returns": {},
  "timestamp": 1716008513,
  "chain": 11155111,
  "commit": "6b508bc"
}