{
  "transactions": [
    {
      "hash": "0x5516081311bf9ee9ec17b38ef3234eadaeda88b0c15d159867432bfcffcfef7e",
      "transactionType": "CALL",
      "contractName": null,
      "contractAddress": "0xe157839cf20825b946ef7b6b708bd890065ad0ba",
      "function": "mint(uint256,address[])",
      "arguments": [
        "1",
        "[0x44bF9Bb57F8ed0CA02cA27Ad009e48AccEEB82D2]"
      ],
      "transaction": {
        "from": "0x3ce1f9bfcf48ea8ee299e48ad8d62517584af24e",
        "to": "0xe157839cf20825b946ef7b6b708bd890065ad0ba",
        "gas": "0x158f5",
        "value": "0x0",
        "input": "0x4e6cca8f00000000000000000000000000000000000000000000000000000000000000010000000000000000000000000000000000000000000000000000000000000040000000000000000000000000000000000000000000000000000000000000000100000000000000000000000044bf9bb57f8ed0ca02ca27ad009e48acceeb82d2",
        "nonce": "0x53",
        "chainId": "0xaa36a7"
      },
      "additionalContracts": [],
      "isFixedGasLimit": false
    }
  ],
  "receipts": [
    {
      "status": "0x1",
      "cumulativeGasUsed": "0x71634c",
      "logs": [
        {
          "address": "0xe157839cf20825b946ef7b6b708bd890065ad0ba",
          "topics": [
            "0xc3d58168c5ae7397731d063d5bbf3d657854427343f4c083240f7aacaa2d0f62",
            "0x0000000000000000000000003ce1f9bfcf48ea8ee299e48ad8d62517584af24e",
            "0x0000000000000000000000000000000000000000000000000000000000000000",
            "0x00000000000000000000000044bf9bb57f8ed0ca02ca27ad009e48acceeb82d2"
          ],
          "data": "0x00000000000000000000000000000000000000000000000000000000000000010000000000000000000000000000000000000000000000000000000000000001",
          "blockHash": "0xc151c2702a97c975738be48336d26ed5b1452db11c915aced3ef1f1ff226b6c4",
          "blockNumber": "0x5a5b0b",
          "transactionHash": "0x5516081311bf9ee9ec17b38ef3234eadaeda88b0c15d159867432bfcffcfef7e",
          "transactionIndex": "0x2d",
          "logIndex": "0x57",
          "removed": false
        }
      ],
      "logsBloom": "0x00000000000000000000000000000000000000000000000000010000000000000000000000001000000000000000000000000000000000000000000000002000000000000000000000000000000000000000000000000000000000000000000000000040020000080000000000000800000004000000000000000000000000000000000000000000000000000000000000000000000000000000000000000000000000000000000000000000000000000000000000000000000000000000000000000001000000000000000010000000000000000008000000000000000020000000000000000000000000000000000000000200000000000004080000000000",
      "type": "0x2",
      "transactionHash": "0x5516081311bf9ee9ec17b38ef3234eadaeda88b0c15d159867432bfcffcfef7e",
      "transactionIndex": "0x2d",
      "blockHash": "0xc151c2702a97c975738be48336d26ed5b1452db11c915aced3ef1f1ff226b6c4",
      "blockNumber": "0x5a5b0b",
      "gasUsed": "0xf9bf",
      "effectiveGasPrice": "0xd1b88bfae",
      "from": "0x3ce1f9bfcf48ea8ee299e48ad8d62517584af24e",
      "to": "0xe157839cf20825b946ef7b6b708bd890065ad0ba",
      "contractAddress": null
    }
  ],
  "libraries": [],
  "pending": [],
  "returns": {},
  "timestamp": 1715953704,
  "chain": 11155111,
  "commit": "6b508bc"
}