{
  "transactions": [
    {
      "hash": "0xe0db7d76c2389286934b0e1f69e9390c7bcdd8c5c0e8dacdca9c97f1c6c7f1ee",
      "transactionType": "CALL",
      "contractName": null,
      "contractAddress": "0xe157839cf20825b946ef7b6b708bd890065ad0ba",
      "function": "mint(uint256,address[])",
      "arguments": [
        "1",
        "[0x8751Cc6A3885B247D495244655BfAb5A4AB9585F]"
      ],
      "transaction": {
        "from": "0x3ce1f9bfcf48ea8ee299e48ad8d62517584af24e",
        "to": "0xe157839cf20825b946ef7b6b708bd890065ad0ba",
        "gas": "0x16d52",
        "value": "0x0",
        "input": "0x4e6cca8f0000000000000000000000000000000000000000000000000000000000000001000000000000000000000000000000000000000000000000000000000000004000000000000000000000000000000000000000000000000000000000000000010000000000000000000000008751cc6a3885b247d495244655bfab5a4ab9585f",
        "nonce": "0x52",
        "chainId": "0xaa36a7"
      },
      "additionalContracts": [],
      "isFixedGasLimit": false
    }
  ],
  "receipts": [
    {
      "status": "0x1",
      "cumulativeGasUsed": "0x81a18d",
      "logs": [
        {
          "address": "0xe157839cf20825b946ef7b6b708bd890065ad0ba",
          "topics": [
            "0xc3d58168c5ae7397731d063d5bbf3d657854427343f4c083240f7aacaa2d0f62",
            "0x0000000000000000000000003ce1f9bfcf48ea8ee299e48ad8d62517584af24e",
            "0x0000000000000000000000000000000000000000000000000000000000000000",
            "0x0000000000000000000000008751cc6a3885b247d495244655bfab5a4ab9585f"
          ],
          "data": "0x00000000000000000000000000000000000000000000000000000000000000010000000000000000000000000000000000000000000000000000000000000001",
          "blockHash": "0x3b8c031588c63d2915fa4a0fd361524a48b7d21bbced973e9cccdbf6ae03c9be",
          "blockNumber": "0x5a5ac3",
          "transactionHash": "0xe0db7d76c2389286934b0e1f69e9390c7bcdd8c5c0e8dacdca9c97f1c6c7f1ee",
          "transactionIndex": "0x32",
          "logIndex": "0x92",
          "removed": false
        }
      ],
      "logsBloom": "0x00000000000000000000000000000000000000000000000000010000000000000000000000001000000000000000000000000000000000000000000000002000000000000000000000000000000000000000000000000000000000000000000000000040020000080040000000000820000004000000000000000000000000000000000000000000000000000000000000000000000000000000000000000000000000000000000000000000000000000000000000000000000000000000000000000000000000000000000000000000000000000008000000000000000120000000000000000000000000000000000000000200000000000000080000000000",
      "type": "0x2",
      "transactionHash": "0xe0db7d76c2389286934b0e1f69e9390c7bcdd8c5c0e8dacdca9c97f1c6c7f1ee",
      "transactionIndex": "0x32",
      "blockHash": "0x3b8c031588c63d2915fa4a0fd361524a48b7d21bbced973e9cccdbf6ae03c9be",
      "blockNumber": "0x5a5ac3",
      "gasUsed": "0xf9cb",
      "effectiveGasPrice": "0x10c0eff78c",
      "from": "0x3ce1f9bfcf48ea8ee299e48ad8d62517584af24e",
      "to": "0xe157839cf20825b946ef7b6b708bd890065ad0ba",
      "contractAddress": null
    }
  ],
  "libraries": [],
  "pending": [],
  "returns": {},
  "timestamp": 1715952796,
  "chain": 11155111,
  "commit": "6b508bc"
}