{
  "transactions": [
    {
      "hash": "0x832e2022d062e983ab94fb72598c56e4e888ddff4d13e67a5084d922b154b5a0",
      "transactionType": "CALL",
      "contractName": null,
      "contractAddress": "0xe157839cf20825b946ef7b6b708bd890065ad0ba",
      "function": "mint(uint256,address[])",
      "arguments": [
        "1",
        "[0x43be7F6837a61228440014436Cbef876f5439Bb9]"
      ],
      "transaction": {
        "from": "0x3ce1f9bfcf48ea8ee299e48ad8d62517584af24e",
        "to": "0xe157839cf20825b946ef7b6b708bd890065ad0ba",
        "gas": "0x158f5",
        "value": "0x0",
        "input": "0x4e6cca8f00000000000000000000000000000000000000000000000000000000000000010000000000000000000000000000000000000000000000000000000000000040000000000000000000000000000000000000000000000000000000000000000100000000000000000000000043be7f6837a61228440014436cbef876f5439bb9",
        "nonce": "0x55",
        "chainId": "0xaa36a7"
      },
      "additionalContracts": [],
      "isFixedGasLimit": false
    }
  ],
  "receipts": [
    {
      "status": "0x1",
      "cumulativeGasUsed": "0x8f2451",
      "logs": [
        {
          "address": "0xe157839cf20825b946ef7b6b708bd890065ad0ba",
          "topics": [
            "0xc3d58168c5ae7397731d063d5bbf3d657854427343f4c083240f7aacaa2d0f62",
            "0x0000000000000000000000003ce1f9bfcf48ea8ee299e48ad8d62517584af24e",
            "0x0000000000000000000000000000000000000000000000000000000000000000",
            "0x00000000000000000000000043be7f6837a61228440014436cbef876f5439bb9"
          ],
          "data": "0x00000000000000000000000000000000000000000000000000000000000000010000000000000000000000000000000000000000000000000000000000000001",
          "blockHash": "0x5a154799cecf414c04b2bff6125af703ad31b7a4cea16094e0e670b2b7659a3f",
          "blockNumber": "0x5a5cd6",
          "transactionHash": "0x832e2022d062e983ab94fb72598c56e4e888ddff4d13e67a5084d922b154b5a0",
          "transactionIndex": "0x46",
          "logIndex": "0x9d",
          "removed": false
        }
      ],
      "logsBloom": "0x00000000000000000000000000000000000000000000000000010000000000000000000100001000000000000000000000000000000000000000000000002000000000000000000000000000000000000000000000000000000000000000000000000040020000081000000000000800000004000000000000000000000000000000000000000000000008000000000000000000000000000000000000000000000000000000000000000000000000000000000000000000000000000000000000000000000000000000000000000000000000000008000000000000000020000000000000000000000000000000000000000200000000000000080000000000",
      "type": "0x2",
      "transactionHash": "0x832e2022d062e983ab94fb72598c56e4e888ddff4d13e67a5084d922b154b5a0",
      "transactionIndex": "0x46",
      "blockHash": "0x5a154799cecf414c04b2bff6125af703ad31b7a4cea16094e0e670b2b7659a3f",
      "blockNumber": "0x5a5cd6",
      "gasUsed": "0xf9bf",
      "effectiveGasPrice": "0x168d1ccfc0",
      "from": "0x3ce1f9bfcf48ea8ee299e48ad8d62517584af24e",
      "to": "0xe157839cf20825b946ef7b6b708bd890065ad0ba",
      "contractAddress": null
    }
  ],
  "libraries": [],
  "pending": [],
  "returns": {},
  "timestamp": 1715960009,
  "chain": 11155111,
  "commit": "6b508bc"
}